{
  "_format": "hh-sol-artifact-1",
  "contractName": "Voting",
  "sourceName": "contracts/Voting.sol",
  "abi": [
    {
      "inputs": [],
      "stateMutability": "nonpayable",
      "type": "constructor"
    },
    {
      "anonymous": false,
      "inputs": [
        {
          "indexed": false,
          "internalType": "uint256",
          "name": "candidateId",
          "type": "uint256"
        },
        {
          "indexed": false,
          "internalType": "string",
          "name": "name",
          "type": "string"
        }
      ],
      "name": "CandidateAdded",
      "type": "event"
    },
    {
      "anonymous": false,
      "inputs": [
        {
          "indexed": false,
          "internalType": "uint256",
          "name": "newRound",
          "type": "uint256"
        }
      ],
      "name": "ElectionReset",
      "type": "event"
    },
    {
      "anonymous": false,
      "inputs": [
        {
          "indexed": false,
          "internalType": "address",
          "name": "voter",
          "type": "address"
        },
        {
          "indexed": false,
          "internalType": "uint256",
          "name": "candidateId",
          "type": "uint256"
        },
        {
          "indexed": false,
          "internalType": "uint256",
          "name": "round",
          "type": "uint256"
        }
      ],
      "name": "VoteCast",
      "type": "event"
    },
    {
      "anonymous": false,
      "inputs": [
        {
          "indexed": false,
          "internalType": "uint256",
          "name": "round",
          "type": "uint256"
        },
        {
          "indexed": false,
          "internalType": "string",
          "name": "winner",
          "type": "string"
        }
      ],
      "name": "VotingEnded",
      "type": "event"
    },
    {
      "anonymous": false,
      "inputs": [
        {
          "indexed": false,
          "internalType": "uint256",
          "name": "round",
          "type": "uint256"
        }
      ],
      "name": "VotingStarted",
      "type": "event"
    },
    {
      "inputs": [
        {
          "internalType": "string",
          "name": "_name",
          "type": "string"
        }
      ],
      "name": "addCandidate",
      "outputs": [],
      "stateMutability": "nonpayable",
      "type": "function"
    },
    {
      "inputs": [],
      "name": "admin",
      "outputs": [
        {
          "internalType": "address",
          "name": "",
          "type": "address"
        }
      ],
      "stateMutability": "view",
      "type": "function"
    },
    {
      "inputs": [
        {
          "internalType": "uint256",
          "name": "",
          "type": "uint256"
        }
      ],
      "name": "candidates",
      "outputs": [
        {
          "internalType": "uint256",
          "name": "id",
          "type": "uint256"
        },
        {
          "internalType": "string",
          "name": "name",
          "type": "string"
        },
        {
          "internalType": "uint256",
          "name": "voteCount",
          "type": "uint256"
        }
      ],
      "stateMutability": "view",
      "type": "function"
    },
    {
      "inputs": [],
      "name": "electionRound",
      "outputs": [
        {
          "internalType": "uint256",
          "name": "",
          "type": "uint256"
        }
      ],
      "stateMutability": "view",
      "type": "function"
    },
    {
      "inputs": [],
      "name": "endVoting",
      "outputs": [],
      "stateMutability": "nonpayable",
      "type": "function"
    },
    {
      "inputs": [],
      "name": "getResults",
      "outputs": [
        {
          "components": [
            {
              "internalType": "uint256",
              "name": "id",
              "type": "uint256"
            },
            {
              "internalType": "string",
              "name": "name",
              "type": "string"
            },
            {
              "internalType": "uint256",
              "name": "voteCount",
              "type": "uint256"
            }
          ],
          "internalType": "struct Voting.Candidate[]",
          "name": "",
          "type": "tuple[]"
        }
      ],
      "stateMutability": "view",
      "type": "function"
    },
    {
      "inputs": [],
      "name": "getWinner",
      "outputs": [
        {
          "internalType": "string",
          "name": "",
          "type": "string"
        }
      ],
      "stateMutability": "view",
      "type": "function"
    },
    {
      "inputs": [
        {
          "internalType": "address",
          "name": "",
          "type": "address"
        }
      ],
      "name": "hasVotedRound",
      "outputs": [
        {
          "internalType": "uint256",
          "name": "",
          "type": "uint256"
        }
      ],
      "stateMutability": "view",
      "type": "function"
    },
    {
      "inputs": [],
      "name": "resetElection",
      "outputs": [],
      "stateMutability": "nonpayable",
      "type": "function"
    },
    {
      "inputs": [],
      "name": "startVoting",
      "outputs": [],
      "stateMutability": "nonpayable",
      "type": "function"
    },
    {
      "inputs": [
        {
          "internalType": "uint256",
          "name": "_candidateId",
          "type": "uint256"
        }
      ],
      "name": "vote",
      "outputs": [],
      "stateMutability": "nonpayable",
      "type": "function"
    },
    {
      "inputs": [
        {
          "internalType": "uint256",
          "name": "",
          "type": "uint256"
        }
      ],
      "name": "voters",
      "outputs": [
        {
          "internalType": "address",
          "name": "",
          "type": "address"
        }
      ],
      "stateMutability": "view",
      "type": "function"
    },
    {
      "inputs": [],
      "name": "votingEnded",
      "outputs": [
        {
          "internalType": "bool",
          "name": "",
          "type": "bool"
        }
      ],
      "stateMutability": "view",
      "type": "function"
    },
    {
      "inputs": [],
      "name": "votingStarted",
      "outputs": [
        {
          "internalType": "bool",
          "name": "",
          "type": "bool"
        }
      ],
      "stateMutability": "view",
      "type": "function"
    },
    {
      "inputs": [],
      "name": "winner",
      "outputs": [
        {
          "internalType": "string",
          "name": "",
          "type": "string"
        }
      ],
      "stateMutability": "view",
      "type": "function"
    }
  ],
  "bytecode": "0x60806040526001600355348015601457600080fd5b50336000806101000a81548173ffffffffffffffffffffffffffffffffffffffff021916908373ffffffffffffffffffffffffffffffffffffffff160217905550612130806100646000396000f3fe608060405234801561001057600080fd5b50600436106100f55760003560e01c80638e7ea5b211610097578063da58c7d911610066578063da58c7d91461023e578063dfbf53ae1461026e578063e8f305231461028c578063f851a44014610296576100f5565b80638e7ea5b2146101c85780639d5a0529146101e6578063c286acc914610204578063c3403ddf14610234576100f5565b8063462e91ec116100d3578063462e91ec146101525780634717f97c1461016e578063636948741461018c57806383d948b7146101aa576100f5565b80630121b93f146100fa5780631ec6b60a146101165780633477ee2e14610120575b600080fd5b610114600480360381019061010f91906111e8565b6102b4565b005b61011e610542565b005b61013a600480360381019061013591906111e8565b6106d9565b604051610149939291906112b4565b60405180910390f35b61016c60048036038101906101679190611427565b61079b565b005b61017661093d565b60405161018391906115db565b60405180910390f35b610194610a42565b6040516101a191906115fd565b60405180910390f35b6101b2610a48565b6040516101bf9190611633565b60405180910390f35b6101d0610a5b565b6040516101dd919061164e565b60405180910390f35b6101ee610b3c565b6040516101fb9190611633565b60405180910390f35b61021e600480360381019061021991906116ce565b610b4f565b60405161022b91906115fd565b60405180910390f35b61023c610b67565b005b610258600480360381019061025391906111e8565b610cf5565b604051610265919061170a565b60405180910390f35b610276610d34565b604051610283919061164e565b60405180910390f35b610294610dc2565b005b61029e610f65565b6040516102ab919061170a565b60405180910390f35b600560009054906101000a900460ff16610303576040517f08c379a00000000000000000000000000000000000000000000000000000000081526004016102fa90611771565b60405180910390fd5b600560019054906101000a900460ff1615610353576040517f08c379a000000000000000000000000000000000000000000000000000000000815260040161034a906117dd565b60405180910390fd5b600354600260003373ffffffffffffffffffffffffffffffffffffffff1673ffffffffffffffffffffffffffffffffffffffff16815260200190815260200160002054036103d6576040517f08c379a00000000000000000000000000000000000000000000000000000000081526004016103cd90611849565b60405180910390fd5b600180549050811061041d576040517f08c379a0000000000000000000000000000000000000000000000000000000008152600401610414906118b5565b60405180910390fd5b6001808281548110610432576104316118d5565b5b906000526020600020906003020160020160008282546104529190611933565b92505081905550600354600260003373ffffffffffffffffffffffffffffffffffffffff1673ffffffffffffffffffffffffffffffffffffffff168152602001908152602001600020819055506004339080600181540180825580915050600190039060005260206000200160009091909190916101000a81548173ffffffffffffffffffffffffffffffffffffffff021916908373ffffffffffffffffffffffffffffffffffffffff1602179055507fb4cfecf70861b7b150d8337780d34fb4cbc2114b5fb1fe51a5c5fca1849f7274338260035460405161053793929190611967565b60405180910390a150565b60008054906101000a900473ffffffffffffffffffffffffffffffffffffffff1673ffffffffffffffffffffffffffffffffffffffff163373ffffffffffffffffffffffffffffffffffffffff16146105d0576040517f08c379a00000000000000000000000000000000000000000000000000000000081526004016105c790611a10565b60405180910390fd5b600560009054906101000a900460ff1615610620576040517f08c379a000000000000000000000000000000000000000000000000000000000815260040161061790611a7c565b60405180910390fd5b600060018054905011610668576040517f08c379a000000000000000000000000000000000000000000000000000000000815260040161065f90611ae8565b60405180910390fd5b6001600560006101000a81548160ff0219169083151502179055506000600560016101000a81548160ff0219169083151502179055507fcf33babc496bb6dc2942b39cb7b75766bbbadf7da50d176ff8c513e9911402396003546040516106cf91906115fd565b60405180910390a1565b600181815481106106e957600080fd5b906000526020600020906003020160009150905080600001549080600101805461071290611b37565b80601f016020809104026020016040519081016040528092919081815260200182805461073e90611b37565b801561078b5780601f106107605761010080835404028352916020019161078b565b820191906000526020600020905b81548152906001019060200180831161076e57829003601f168201915b5050505050908060020154905083565b60008054906101000a900473ffffffffffffffffffffffffffffffffffffffff1673ffffffffffffffffffffffffffffffffffffffff163373ffffffffffffffffffffffffffffffffffffffff1614610829576040517f08c379a000000000000000000000000000000000000000000000000000000000815260040161082090611a10565b60405180910390fd5b600560009054906101000a900460ff1615610879576040517f08c379a000000000000000000000000000000000000000000000000000000000815260040161087090611bda565b60405180910390fd5b600160405180606001604052806001805490508152602001838152602001600081525090806001815401808255809150506001900390600052602060002090600302016000909190919091506000820151816000015560208201518160010190816108e49190611da6565b506040820151816002015550507fe83b2a43e7e82d975c8a0a6d2f045153c869e111136a34d1889ab7b598e396a3600180805490506109239190611e78565b82604051610932929190611eac565b60405180910390a150565b60606001805480602002602001604051908101604052809291908181526020016000905b82821015610a3957838290600052602060002090600302016040518060600160405290816000820154815260200160018201805461099e90611b37565b80601f01602080910402602001604051908101604052809291908181526020018280546109ca90611b37565b8015610a175780601f106109ec57610100808354040283529160200191610a17565b820191906000526020600020905b8154815290600101906020018083116109fa57829003601f168201915b5050505050815260200160028201548152505081526020019060010190610961565b50505050905090565b60035481565b600560009054906101000a900460ff1681565b6060600560019054906101000a900460ff16610aac576040517f08c379a0000000000000000000000000000000000000000000000000000000008152600401610aa390611f28565b60405180910390fd5b60068054610ab990611b37565b80601f0160208091040260200160405190810160405280929190818152602001828054610ae590611b37565b8015610b325780601f10610b0757610100808354040283529160200191610b32565b820191906000526020600020905b815481529060010190602001808311610b1557829003601f168201915b5050505050905090565b600560019054906101000a900460ff1681565b60026020528060005260406000206000915090505481565b60008054906101000a900473ffffffffffffffffffffffffffffffffffffffff1673ffffffffffffffffffffffffffffffffffffffff163373ffffffffffffffffffffffffffffffffffffffff1614610bf5576040517f08c379a0000000000000000000000000000000000000000000000000000000008152600401610bec90611a10565b60405180910390fd5b600560009054906101000a900460ff16610c44576040517f08c379a0000000000000000000000000000000000000000000000000000000008152600401610c3b90611771565b60405180910390fd5b600560019054906101000a900460ff1615610c94576040517f08c379a0000000000000000000000000000000000000000000000000000000008152600401610c8b90611f94565b60405180910390fd5b6001600560016101000a81548160ff021916908315150217905550610cb7610f89565b7fa3227ce2555eb04e16ca713bb19edd3beed774c93bcdf4e971f7aa405c2ca2536003546006604051610ceb929190612038565b60405180910390a1565b60048181548110610d0557600080fd5b906000526020600020016000915054906101000a900473ffffffffffffffffffffffffffffffffffffffff1681565b60068054610d4190611b37565b80601f0160208091040260200160405190810160405280929190818152602001828054610d6d90611b37565b8015610dba5780601f10610d8f57610100808354040283529160200191610dba565b820191906000526020600020905b815481529060010190602001808311610d9d57829003601f168201915b505050505081565b60008054906101000a900473ffffffffffffffffffffffffffffffffffffffff1673ffffffffffffffffffffffffffffffffffffffff163373ffffffffffffffffffffffffffffffffffffffff1614610e50576040517f08c379a0000000000000000000000000000000000000000000000000000000008152600401610e4790611a10565b60405180910390fd5b600560019054906101000a900460ff16610e9f576040517f08c379a0000000000000000000000000000000000000000000000000000000008152600401610e96906120da565b60405180910390fd5b60016000610ead91906110c5565b6000600560006101000a81548160ff0219169083151502179055506000600560016101000a81548160ff0219169083151502179055506040518060200160405280600081525060069081610f019190611da6565b50600160036000828254610f159190611933565b9250508190555060046000610f2a91906110e9565b7f2a0e7ca52e830898fc8ddd8f2fc8695795a5fdf74064958562691b5bea4485f5600354604051610f5b91906115fd565b60405180910390a1565b60008054906101000a900473ffffffffffffffffffffffffffffffffffffffff1681565b6000606060005b6001805490508110156110b0578260018281548110610fb257610fb16118d5565b5b90600052602060002090600302016002015411156110a35760018181548110610fde57610fdd6118d5565b5b906000526020600020906003020160020154925060018181548110611006576110056118d5565b5b9060005260206000209060030201600101805461102290611b37565b80601f016020809104026020016040519081016040528092919081815260200182805461104e90611b37565b801561109b5780601f106110705761010080835404028352916020019161109b565b820191906000526020600020905b81548152906001019060200180831161107e57829003601f168201915b505050505091505b8080600101915050610f90565b5080600690816110c09190611da6565b505050565b50805460008255600302906000526020600020908101906110e6919061110a565b50565b50805460008255906000526020600020908101906111079190611141565b50565b5b8082111561113d5760008082016000905560018201600061112c919061115e565b60028201600090555060030161110b565b5090565b5b8082111561115a576000816000905550600101611142565b5090565b50805461116a90611b37565b6000825580601f1061117c575061119b565b601f01602090049060005260206000209081019061119a9190611141565b5b50565b6000604051905090565b600080fd5b600080fd5b6000819050919050565b6111c5816111b2565b81146111d057600080fd5b50565b6000813590506111e2816111bc565b92915050565b6000602082840312156111fe576111fd6111a8565b5b600061120c848285016111d3565b91505092915050565b61121e816111b2565b82525050565b600081519050919050565b600082825260208201905092915050565b60005b8381101561125e578082015181840152602081019050611243565b60008484015250505050565b6000601f19601f8301169050919050565b600061128682611224565b611290818561122f565b93506112a0818560208601611240565b6112a98161126a565b840191505092915050565b60006060820190506112c96000830186611215565b81810360208301526112db818561127b565b90506112ea6040830184611215565b949350505050565b600080fd5b600080fd5b7f4e487b7100000000000000000000000000000000000000000000000000000000600052604160045260246000fd5b6113348261126a565b810181811067ffffffffffffffff82111715611353576113526112fc565b5b80604052505050565b600061136661119e565b9050611372828261132b565b919050565b600067ffffffffffffffff821115611392576113916112fc565b5b61139b8261126a565b9050602081019050919050565b82818337600083830152505050565b60006113ca6113c584611377565b61135c565b9050828152602081018484840111156113e6576113e56112f7565b5b6113f18482856113a8565b509392505050565b600082601f83011261140e5761140d6112f2565b5b813561141e8482602086016113b7565b91505092915050565b60006020828403121561143d5761143c6111a8565b5b600082013567ffffffffffffffff81111561145b5761145a6111ad565b5b611467848285016113f9565b91505092915050565b600081519050919050565b600082825260208201905092915050565b6000819050602082019050919050565b6114a5816111b2565b82525050565b600082825260208201905092915050565b60006114c782611224565b6114d181856114ab565b93506114e1818560208601611240565b6114ea8161126a565b840191505092915050565b600060608301600083015161150d600086018261149c565b506020830151848203602086015261152582826114bc565b915050604083015161153a604086018261149c565b508091505092915050565b600061155183836114f5565b905092915050565b6000602082019050919050565b600061157182611470565b61157b818561147b565b93508360208202850161158d8561148c565b8060005b858110156115c957848403895281516115aa8582611545565b94506115b583611559565b925060208a01995050600181019050611591565b50829750879550505050505092915050565b600060208201905081810360008301526115f58184611566565b905092915050565b60006020820190506116126000830184611215565b92915050565b60008115159050919050565b61162d81611618565b82525050565b60006020820190506116486000830184611624565b92915050565b60006020820190508181036000830152611668818461127b565b905092915050565b600073ffffffffffffffffffffffffffffffffffffffff82169050919050565b600061169b82611670565b9050919050565b6116ab81611690565b81146116b657600080fd5b50565b6000813590506116c8816116a2565b92915050565b6000602082840312156116e4576116e36111a8565b5b60006116f2848285016116b9565b91505092915050565b61170481611690565b82525050565b600060208201905061171f60008301846116fb565b92915050565b7f566f74696e6720686173206e6f74207374617274656400000000000000000000600082015250565b600061175b60168361122f565b915061176682611725565b602082019050919050565b6000602082019050818103600083015261178a8161174e565b9050919050565b7f566f74696e672068617320656e64656400000000000000000000000000000000600082015250565b60006117c760108361122f565b91506117d282611791565b602082019050919050565b600060208201905081810360008301526117f6816117ba565b9050919050565b7f596f75206861766520616c726561647920766f74656400000000000000000000600082015250565b600061183360168361122f565b915061183e826117fd565b602082019050919050565b6000602082019050818103600083015261186281611826565b9050919050565b7f496e76616c69642063616e646964617465000000000000000000000000000000600082015250565b600061189f60118361122f565b91506118aa82611869565b602082019050919050565b600060208201905081810360008301526118ce81611892565b9050919050565b7f4e487b7100000000000000000000000000000000000000000000000000000000600052603260045260246000fd5b7f4e487b7100000000000000000000000000000000000000000000000000000000600052601160045260246000fd5b600061193e826111b2565b9150611949836111b2565b925082820190508082111561196157611960611904565b5b92915050565b600060608201905061197c60008301866116fb565b6119896020830185611215565b6119966040830184611215565b949350505050565b7f4f6e6c792061646d696e2063616e20706572666f726d2074686973206163746960008201527f6f6e000000000000000000000000000000000000000000000000000000000000602082015250565b60006119fa60228361122f565b9150611a058261199e565b604082019050919050565b60006020820190508181036000830152611a29816119ed565b9050919050565b7f566f74696e672068617320616c72656164792073746172746564000000000000600082015250565b6000611a66601a8361122f565b9150611a7182611a30565b602082019050919050565b60006020820190508181036000830152611a9581611a59565b9050919050565b7f416464206174206c65617374206f6e652063616e646964617465206669727374600082015250565b6000611ad260208361122f565b9150611add82611a9c565b602082019050919050565b60006020820190508181036000830152611b0181611ac5565b9050919050565b7f4e487b7100000000000000000000000000000000000000000000000000000000600052602260045260246000fd5b60006002820490506001821680611b4f57607f821691505b602082108103611b6257611b61611b08565b5b50919050565b7f43616e6e6f74206164642063616e6469646174657320616674657220766f746960008201527f6e67207374617274730000000000000000000000000000000000000000000000602082015250565b6000611bc460298361122f565b9150611bcf82611b68565b604082019050919050565b60006020820190508181036000830152611bf381611bb7565b9050919050565b60008190508160005260206000209050919050565b60006020601f8301049050919050565b600082821b905092915050565b600060088302611c5c7fffffffffffffffffffffffffffffffffffffffffffffffffffffffffffffffff82611c1f565b611c668683611c1f565b95508019841693508086168417925050509392505050565b6000819050919050565b6000611ca3611c9e611c99846111b2565b611c7e565b6111b2565b9050919050565b6000819050919050565b611cbd83611c88565b611cd1611cc982611caa565b848454611c2c565b825550505050565b600090565b611ce6611cd9565b611cf1818484611cb4565b505050565b5b81811015611d1557611d0a600082611cde565b600181019050611cf7565b5050565b601f821115611d5a57611d2b81611bfa565b611d3484611c0f565b81016020851015611d43578190505b611d57611d4f85611c0f565b830182611cf6565b50505b505050565b600082821c905092915050565b6000611d7d60001984600802611d5f565b1980831691505092915050565b6000611d968383611d6c565b9150826002028217905092915050565b611daf82611224565b67ffffffffffffffff811115611dc857611dc76112fc565b5b611dd28254611b37565b611ddd828285611d19565b600060209050601f831160018114611e105760008415611dfe578287015190505b611e088582611d8a565b865550611e70565b601f198416611e1e86611bfa565b60005b82811015611e4657848901518255600182019150602085019450602081019050611e21565b86831015611e635784890151611e5f601f891682611d6c565b8355505b6001600288020188555050505b505050505050565b6000611e83826111b2565b9150611e8e836111b2565b9250828203905081811115611ea657611ea5611904565b5b92915050565b6000604082019050611ec16000830185611215565b8181036020830152611ed3818461127b565b90509392505050565b7f566f74696e67206973206e6f742079657420656e646564000000000000000000600082015250565b6000611f1260178361122f565b9150611f1d82611edc565b602082019050919050565b60006020820190508181036000830152611f4181611f05565b9050919050565b7f566f74696e6720616c726561647920656e646564000000000000000000000000600082015250565b6000611f7e60148361122f565b9150611f8982611f48565b602082019050919050565b60006020820190508181036000830152611fad81611f71565b9050919050565b60008154611fc181611b37565b611fcb818661122f565b94506001821660008114611fe65760018114611ffc5761202f565b60ff19831686528115156020028601935061202f565b61200585611bfa565b60005b8381101561202757815481890152600182019150602081019050612008565b808801955050505b50505092915050565b600060408201905061204d6000830185611215565b818103602083015261205f8184611fb4565b90509392505050565b7f43616e6e6f74207265736574207768696c6520766f74696e672069732061637460008201527f6976650000000000000000000000000000000000000000000000000000000000602082015250565b60006120c460238361122f565b91506120cf82612068565b604082019050919050565b600060208201905081810360008301526120f3816120b7565b905091905056fea2646970667358221220e13357c11d0e42940380ef84801f68fcc97cfa8a9779eb5c24fc620022c3dead64736f6c634300081c0033",
  "linkReferences": {},
  "deployedLinkReferences": {}
}