{
  "_format": "hh-sol-artifact-1",
  "contractName": "Voting",
  "sourceName": "contracts/Voting.sol",
  "abi": [
    {
      "inputs": [],
      "stateMutability": "nonpayable",
      "type": "constructor"
    },
    {
      "anonymous": false,
      "inputs": [
        {
          "indexed": false,
          "internalType": "uint256",
          "name": "candidateId",
          "type": "uint256"
        },
        {
          "indexed": false,
          "internalType": "string",
          "name": "name",
          "type": "string"
        }
      ],
      "name": "CandidateAdded",
      "type": "event"
    },
    {
      "anonymous": false,
      "inputs": [
        {
          "indexed": false,
          "internalType": "string",
          "name": "name",
          "type": "string"
        },
        {
          "indexed": false,
          "internalType": "uint256",
          "name": "votes",
          "type": "uint256"
        }
      ],
      "name": "CandidateDebug",
      "type": "event"
    },
    {
      "anonymous": false,
      "inputs": [
        {
          "indexed": false,
          "internalType": "uint256",
          "name": "newRound",
          "type": "uint256"
        }
      ],
      "name": "ElectionReset",
      "type": "event"
    },
    {
      "anonymous": false,
      "inputs": [
        {
          "indexed": false,
          "internalType": "address",
          "name": "voter",
          "type": "address"
        },
        {
          "indexed": false,
          "internalType": "uint256",
          "name": "candidateId",
          "type": "uint256"
        },
        {
          "indexed": false,
          "internalType": "uint256",
          "name": "round",
          "type": "uint256"
        }
      ],
      "name": "VoteCast",
      "type": "event"
    },
    {
      "anonymous": false,
      "inputs": [
        {
          "indexed": false,
          "internalType": "uint256",
          "name": "round",
          "type": "uint256"
        },
        {
          "indexed": false,
          "internalType": "string",
          "name": "winner",
          "type": "string"
        }
      ],
      "name": "VotingEnded",
      "type": "event"
    },
    {
      "anonymous": false,
      "inputs": [
        {
          "indexed": false,
          "internalType": "uint256",
          "name": "round",
          "type": "uint256"
        }
      ],
      "name": "VotingStarted",
      "type": "event"
    },
    {
      "anonymous": false,
      "inputs": [
        {
          "indexed": false,
          "internalType": "string",
          "name": "winner",
          "type": "string"
        },
        {
          "indexed": false,
          "internalType": "uint256",
          "name": "votes",
          "type": "uint256"
        }
      ],
      "name": "WinnerSelected",
      "type": "event"
    },
    {
      "inputs": [
        {
          "internalType": "string",
          "name": "_name",
          "type": "string"
        }
      ],
      "name": "addCandidate",
      "outputs": [],
      "stateMutability": "nonpayable",
      "type": "function"
    },
    {
      "inputs": [],
      "name": "admin",
      "outputs": [
        {
          "internalType": "address",
          "name": "",
          "type": "address"
        }
      ],
      "stateMutability": "view",
      "type": "function"
    },
    {
      "inputs": [
        {
          "internalType": "uint256",
          "name": "",
          "type": "uint256"
        }
      ],
      "name": "candidates",
      "outputs": [
        {
          "internalType": "uint256",
          "name": "id",
          "type": "uint256"
        },
        {
          "internalType": "string",
          "name": "name",
          "type": "string"
        },
        {
          "internalType": "uint256",
          "name": "voteCount",
          "type": "uint256"
        }
      ],
      "stateMutability": "view",
      "type": "function"
    },
    {
      "inputs": [],
      "name": "electionRound",
      "outputs": [
        {
          "internalType": "uint256",
          "name": "",
          "type": "uint256"
        }
      ],
      "stateMutability": "view",
      "type": "function"
    },
    {
      "inputs": [],
      "name": "endVoting",
      "outputs": [],
      "stateMutability": "nonpayable",
      "type": "function"
    },
    {
      "inputs": [
        {
          "internalType": "uint256",
          "name": "index",
          "type": "uint256"
        }
      ],
      "name": "getCandidateByIndex",
      "outputs": [
        {
          "internalType": "uint256",
          "name": "id",
          "type": "uint256"
        },
        {
          "internalType": "string",
          "name": "name",
          "type": "string"
        },
        {
          "internalType": "uint256",
          "name": "voteCount",
          "type": "uint256"
        }
      ],
      "stateMutability": "view",
      "type": "function"
    },
    {
      "inputs": [],
      "name": "getCandidateCount",
      "outputs": [
        {
          "internalType": "uint256",
          "name": "",
          "type": "uint256"
        }
      ],
      "stateMutability": "view",
      "type": "function"
    },
    {
      "inputs": [],
      "name": "getResults",
      "outputs": [
        {
          "components": [
            {
              "internalType": "uint256",
              "name": "id",
              "type": "uint256"
            },
            {
              "internalType": "string",
              "name": "name",
              "type": "string"
            },
            {
              "internalType": "uint256",
              "name": "voteCount",
              "type": "uint256"
            }
          ],
          "internalType": "struct Voting.Candidate[]",
          "name": "",
          "type": "tuple[]"
        }
      ],
      "stateMutability": "view",
      "type": "function"
    },
    {
      "inputs": [],
      "name": "getWinner",
      "outputs": [
        {
          "internalType": "string",
          "name": "",
          "type": "string"
        }
      ],
      "stateMutability": "view",
      "type": "function"
    },
    {
      "inputs": [
        {
          "internalType": "address",
          "name": "",
          "type": "address"
        }
      ],
      "name": "hasVotedRound",
      "outputs": [
        {
          "internalType": "uint256",
          "name": "",
          "type": "uint256"
        }
      ],
      "stateMutability": "view",
      "type": "function"
    },
    {
      "inputs": [],
      "name": "resetElection",
      "outputs": [],
      "stateMutability": "nonpayable",
      "type": "function"
    },
    {
      "inputs": [],
      "name": "startVoting",
      "outputs": [],
      "stateMutability": "nonpayable",
      "type": "function"
    },
    {
      "inputs": [
        {
          "internalType": "uint256",
          "name": "_candidateId",
          "type": "uint256"
        }
      ],
      "name": "vote",
      "outputs": [],
      "stateMutability": "nonpayable",
      "type": "function"
    },
    {
      "inputs": [
        {
          "internalType": "uint256",
          "name": "",
          "type": "uint256"
        }
      ],
      "name": "voters",
      "outputs": [
        {
          "internalType": "address",
          "name": "",
          "type": "address"
        }
      ],
      "stateMutability": "view",
      "type": "function"
    },
    {
      "inputs": [],
      "name": "votingEnded",
      "outputs": [
        {
          "internalType": "bool",
          "name": "",
          "type": "bool"
        }
      ],
      "stateMutability": "view",
      "type": "function"
    },
    {
      "inputs": [],
      "name": "votingStarted",
      "outputs": [
        {
          "internalType": "bool",
          "name": "",
          "type": "bool"
        }
      ],
      "stateMutability": "view",
      "type": "function"
    },
    {
      "inputs": [],
      "name": "winner",
      "outputs": [
        {
          "internalType": "string",
          "name": "",
          "type": "string"
        }
      ],
      "stateMutability": "view",
      "type": "function"
    }
  ],
  "bytecode": "0x6080604052600160035534801561001557600080fd5b50336000806101000a81548173ffffffffffffffffffffffffffffffffffffffff021916908373ffffffffffffffffffffffffffffffffffffffff160217905550612464806100656000396000f3fe608060405234801561001057600080fd5b506004361061010b5760003560e01c80638e7ea5b2116100a2578063c3403ddf11610071578063c3403ddf1461029a578063da58c7d9146102a4578063dfbf53ae146102d4578063e8f30523146102f2578063f851a440146102fc5761010b565b80638e7ea5b2146101fc5780639d5a05291461021a578063ab172cf514610238578063c286acc91461026a5761010b565b8063462e91ec116100de578063462e91ec146101865780634717f97c146101a257806363694874146101c057806383d948b7146101de5761010b565b80630121b93f146101105780631ec6b60a1461012c57806330a56347146101365780633477ee2e14610154575b600080fd5b61012a60048036038101906101259190611438565b61031a565b005b6101346105a8565b005b61013e61073f565b60405161014b9190611474565b60405180910390f35b61016e60048036038101906101699190611438565b61074c565b60405161017d9392919061151f565b60405180910390f35b6101a0600480360381019061019b9190611692565b61080e565b005b6101aa6109b0565b6040516101b79190611846565b60405180910390f35b6101c8610ab5565b6040516101d59190611474565b60405180910390f35b6101e6610abb565b6040516101f39190611883565b60405180910390f35b610204610ace565b604051610211919061189e565b60405180910390f35b610222610baf565b60405161022f9190611883565b60405180910390f35b610252600480360381019061024d9190611438565b610bc2565b6040516102619392919061151f565b60405180910390f35b610284600480360381019061027f919061191e565b610cdd565b6040516102919190611474565b60405180910390f35b6102a2610cf5565b005b6102be60048036038101906102b99190611438565b610e83565b6040516102cb919061195a565b60405180910390f35b6102dc610ec2565b6040516102e9919061189e565b60405180910390f35b6102fa610f50565b005b6103046110f3565b604051610311919061195a565b60405180910390f35b600560009054906101000a900460ff16610369576040517f08c379a0000000000000000000000000000000000000000000000000000000008152600401610360906119c1565b60405180910390fd5b600560019054906101000a900460ff16156103b9576040517f08c379a00000000000000000000000000000000000000000000000000000000081526004016103b090611a2d565b60405180910390fd5b600354600260003373ffffffffffffffffffffffffffffffffffffffff1673ffffffffffffffffffffffffffffffffffffffff168152602001908152602001600020540361043c576040517f08c379a000000000000000000000000000000000000000000000000000000000815260040161043390611a99565b60405180910390fd5b6001805490508110610483576040517f08c379a000000000000000000000000000000000000000000000000000000000815260040161047a90611b05565b60405180910390fd5b600180828154811061049857610497611b25565b5b906000526020600020906003020160020160008282546104b89190611b83565b92505081905550600354600260003373ffffffffffffffffffffffffffffffffffffffff1673ffffffffffffffffffffffffffffffffffffffff168152602001908152602001600020819055506004339080600181540180825580915050600190039060005260206000200160009091909190916101000a81548173ffffffffffffffffffffffffffffffffffffffff021916908373ffffffffffffffffffffffffffffffffffffffff1602179055507fb4cfecf70861b7b150d8337780d34fb4cbc2114b5fb1fe51a5c5fca1849f7274338260035460405161059d93929190611bb7565b60405180910390a150565b60008054906101000a900473ffffffffffffffffffffffffffffffffffffffff1673ffffffffffffffffffffffffffffffffffffffff163373ffffffffffffffffffffffffffffffffffffffff1614610636576040517f08c379a000000000000000000000000000000000000000000000000000000000815260040161062d90611c60565b60405180910390fd5b600560009054906101000a900460ff1615610686576040517f08c379a000000000000000000000000000000000000000000000000000000000815260040161067d90611ccc565b60405180910390fd5b6000600180549050116106ce576040517f08c379a00000000000000000000000000000000000000000000000000000000081526004016106c590611d38565b60405180910390fd5b6001600560006101000a81548160ff0219169083151502179055506000600560016101000a81548160ff0219169083151502179055507fcf33babc496bb6dc2942b39cb7b75766bbbadf7da50d176ff8c513e9911402396003546040516107359190611474565b60405180910390a1565b6000600180549050905090565b6001818154811061075c57600080fd5b906000526020600020906003020160009150905080600001549080600101805461078590611d87565b80601f01602080910402602001604051908101604052809291908181526020018280546107b190611d87565b80156107fe5780601f106107d3576101008083540402835291602001916107fe565b820191906000526020600020905b8154815290600101906020018083116107e157829003601f168201915b5050505050908060020154905083565b60008054906101000a900473ffffffffffffffffffffffffffffffffffffffff1673ffffffffffffffffffffffffffffffffffffffff163373ffffffffffffffffffffffffffffffffffffffff161461089c576040517f08c379a000000000000000000000000000000000000000000000000000000000815260040161089390611c60565b60405180910390fd5b600560009054906101000a900460ff16156108ec576040517f08c379a00000000000000000000000000000000000000000000000000000000081526004016108e390611e2a565b60405180910390fd5b600160405180606001604052806001805490508152602001838152602001600081525090806001815401808255809150506001900390600052602060002090600302016000909190919091506000820151816000015560208201518160010190816109579190611ff6565b506040820151816002015550507fe83b2a43e7e82d975c8a0a6d2f045153c869e111136a34d1889ab7b598e396a36001808054905061099691906120c8565b826040516109a59291906120fc565b60405180910390a150565b60606001805480602002602001604051908101604052809291908181526020016000905b82821015610aac578382906000526020600020906003020160405180606001604052908160008201548152602001600182018054610a1190611d87565b80601f0160208091040260200160405190810160405280929190818152602001828054610a3d90611d87565b8015610a8a5780601f10610a5f57610100808354040283529160200191610a8a565b820191906000526020600020905b815481529060010190602001808311610a6d57829003601f168201915b50505050508152602001600282015481525050815260200190600101906109d4565b50505050905090565b60035481565b600560009054906101000a900460ff1681565b6060600560019054906101000a900460ff16610b1f576040517f08c379a0000000000000000000000000000000000000000000000000000000008152600401610b1690612178565b60405180910390fd5b60068054610b2c90611d87565b80601f0160208091040260200160405190810160405280929190818152602001828054610b5890611d87565b8015610ba55780601f10610b7a57610100808354040283529160200191610ba5565b820191906000526020600020905b815481529060010190602001808311610b8857829003601f168201915b5050505050905090565b600560019054906101000a900460ff1681565b6000606060006001805490508410610c0f576040517f08c379a0000000000000000000000000000000000000000000000000000000008152600401610c06906121e4565b60405180910390fd5b600060018581548110610c2557610c24611b25565b5b906000526020600020906003020190508060000154816001018260020154818054610c4f90611d87565b80601f0160208091040260200160405190810160405280929190818152602001828054610c7b90611d87565b8015610cc85780601f10610c9d57610100808354040283529160200191610cc8565b820191906000526020600020905b815481529060010190602001808311610cab57829003601f168201915b50505050509150935093509350509193909250565b60026020528060005260406000206000915090505481565b60008054906101000a900473ffffffffffffffffffffffffffffffffffffffff1673ffffffffffffffffffffffffffffffffffffffff163373ffffffffffffffffffffffffffffffffffffffff1614610d83576040517f08c379a0000000000000000000000000000000000000000000000000000000008152600401610d7a90611c60565b60405180910390fd5b600560009054906101000a900460ff16610dd2576040517f08c379a0000000000000000000000000000000000000000000000000000000008152600401610dc9906119c1565b60405180910390fd5b600560019054906101000a900460ff1615610e22576040517f08c379a0000000000000000000000000000000000000000000000000000000008152600401610e1990612250565b60405180910390fd5b6001600560016101000a81548160ff021916908315150217905550610e45611117565b7fa3227ce2555eb04e16ca713bb19edd3beed774c93bcdf4e971f7aa405c2ca2536003546006604051610e799291906122f4565b60405180910390a1565b60048181548110610e9357600080fd5b906000526020600020016000915054906101000a900473ffffffffffffffffffffffffffffffffffffffff1681565b60068054610ecf90611d87565b80601f0160208091040260200160405190810160405280929190818152602001828054610efb90611d87565b8015610f485780601f10610f1d57610100808354040283529160200191610f48565b820191906000526020600020905b815481529060010190602001808311610f2b57829003601f168201915b505050505081565b60008054906101000a900473ffffffffffffffffffffffffffffffffffffffff1673ffffffffffffffffffffffffffffffffffffffff163373ffffffffffffffffffffffffffffffffffffffff1614610fde576040517f08c379a0000000000000000000000000000000000000000000000000000000008152600401610fd590611c60565b60405180910390fd5b600560019054906101000a900460ff1661102d576040517f08c379a000000000000000000000000000000000000000000000000000000000815260040161102490612396565b60405180910390fd5b6001600061103b9190611315565b6000600560006101000a81548160ff0219169083151502179055506000600560016101000a81548160ff021916908315150217905550604051806020016040528060008152506006908161108f9190611ff6565b506001600360008282546110a39190611b83565b92505081905550600460006110b89190611339565b7f2a0e7ca52e830898fc8ddd8f2fc8695795a5fdf74064958562691b5bea4485f56003546040516110e99190611474565b60405180910390a1565b60008054906101000a900473ffffffffffffffffffffffffffffffffffffffff1681565b6000606060005b6001805490508110156112c6577f8e1435f426d8d552d2722f1a60b13cfd8af09dc22de0f8a44507fa766bf28796600182815481106111605761115f611b25565b5b90600052602060002090600302016001016001838154811061118557611184611b25565b5b9060005260206000209060030201600201546040516111a59291906123b6565b60405180910390a182600182815481106111c2576111c1611b25565b5b90600052602060002090600302016002015411156112b357600181815481106111ee576111ed611b25565b5b90600052602060002090600302016002015492506001818154811061121657611215611b25565b5b9060005260206000209060030201600101805461123290611d87565b80601f016020809104026020016040519081016040528092919081815260200182805461125e90611d87565b80156112ab5780601f10611280576101008083540402835291602001916112ab565b820191906000526020600020905b81548152906001019060200180831161128e57829003601f168201915b505050505091505b80806112be906123e6565b91505061111e565b5080600690816112d69190611ff6565b507f3ec383f1488e95658b5aa7d46864907e57db45a34dbf377da530f05f93d336a36006836040516113099291906123b6565b60405180910390a15050565b5080546000825560030290600052602060002090810190611336919061135a565b50565b50805460008255906000526020600020908101906113579190611391565b50565b5b8082111561138d5760008082016000905560018201600061137c91906113ae565b60028201600090555060030161135b565b5090565b5b808211156113aa576000816000905550600101611392565b5090565b5080546113ba90611d87565b6000825580601f106113cc57506113eb565b601f0160209004906000526020600020908101906113ea9190611391565b5b50565b6000604051905090565b600080fd5b600080fd5b6000819050919050565b61141581611402565b811461142057600080fd5b50565b6000813590506114328161140c565b92915050565b60006020828403121561144e5761144d6113f8565b5b600061145c84828501611423565b91505092915050565b61146e81611402565b82525050565b60006020820190506114896000830184611465565b92915050565b600081519050919050565b600082825260208201905092915050565b60005b838110156114c95780820151818401526020810190506114ae565b60008484015250505050565b6000601f19601f8301169050919050565b60006114f18261148f565b6114fb818561149a565b935061150b8185602086016114ab565b611514816114d5565b840191505092915050565b60006060820190506115346000830186611465565b818103602083015261154681856114e6565b90506115556040830184611465565b949350505050565b600080fd5b600080fd5b7f4e487b7100000000000000000000000000000000000000000000000000000000600052604160045260246000fd5b61159f826114d5565b810181811067ffffffffffffffff821117156115be576115bd611567565b5b80604052505050565b60006115d16113ee565b90506115dd8282611596565b919050565b600067ffffffffffffffff8211156115fd576115fc611567565b5b611606826114d5565b9050602081019050919050565b82818337600083830152505050565b6000611635611630846115e2565b6115c7565b90508281526020810184848401111561165157611650611562565b5b61165c848285611613565b509392505050565b600082601f8301126116795761167861155d565b5b8135611689848260208601611622565b91505092915050565b6000602082840312156116a8576116a76113f8565b5b600082013567ffffffffffffffff8111156116c6576116c56113fd565b5b6116d284828501611664565b91505092915050565b600081519050919050565b600082825260208201905092915050565b6000819050602082019050919050565b61171081611402565b82525050565b600082825260208201905092915050565b60006117328261148f565b61173c8185611716565b935061174c8185602086016114ab565b611755816114d5565b840191505092915050565b60006060830160008301516117786000860182611707565b50602083015184820360208601526117908282611727565b91505060408301516117a56040860182611707565b508091505092915050565b60006117bc8383611760565b905092915050565b6000602082019050919050565b60006117dc826116db565b6117e681856116e6565b9350836020820285016117f8856116f7565b8060005b85811015611834578484038952815161181585826117b0565b9450611820836117c4565b925060208a019950506001810190506117fc565b50829750879550505050505092915050565b6000602082019050818103600083015261186081846117d1565b905092915050565b60008115159050919050565b61187d81611868565b82525050565b60006020820190506118986000830184611874565b92915050565b600060208201905081810360008301526118b881846114e6565b905092915050565b600073ffffffffffffffffffffffffffffffffffffffff82169050919050565b60006118eb826118c0565b9050919050565b6118fb816118e0565b811461190657600080fd5b50565b600081359050611918816118f2565b92915050565b600060208284031215611934576119336113f8565b5b600061194284828501611909565b91505092915050565b611954816118e0565b82525050565b600060208201905061196f600083018461194b565b92915050565b7f566f74696e6720686173206e6f74207374617274656400000000000000000000600082015250565b60006119ab60168361149a565b91506119b682611975565b602082019050919050565b600060208201905081810360008301526119da8161199e565b9050919050565b7f566f74696e672068617320656e64656400000000000000000000000000000000600082015250565b6000611a1760108361149a565b9150611a22826119e1565b602082019050919050565b60006020820190508181036000830152611a4681611a0a565b9050919050565b7f596f75206861766520616c726561647920766f74656400000000000000000000600082015250565b6000611a8360168361149a565b9150611a8e82611a4d565b602082019050919050565b60006020820190508181036000830152611ab281611a76565b9050919050565b7f496e76616c69642063616e646964617465000000000000000000000000000000600082015250565b6000611aef60118361149a565b9150611afa82611ab9565b602082019050919050565b60006020820190508181036000830152611b1e81611ae2565b9050919050565b7f4e487b7100000000000000000000000000000000000000000000000000000000600052603260045260246000fd5b7f4e487b7100000000000000000000000000000000000000000000000000000000600052601160045260246000fd5b6000611b8e82611402565b9150611b9983611402565b9250828201905080821115611bb157611bb0611b54565b5b92915050565b6000606082019050611bcc600083018661194b565b611bd96020830185611465565b611be66040830184611465565b949350505050565b7f4f6e6c792061646d696e2063616e20706572666f726d2074686973206163746960008201527f6f6e000000000000000000000000000000000000000000000000000000000000602082015250565b6000611c4a60228361149a565b9150611c5582611bee565b604082019050919050565b60006020820190508181036000830152611c7981611c3d565b9050919050565b7f566f74696e672068617320616c72656164792073746172746564000000000000600082015250565b6000611cb6601a8361149a565b9150611cc182611c80565b602082019050919050565b60006020820190508181036000830152611ce581611ca9565b9050919050565b7f416464206174206c65617374206f6e652063616e646964617465206669727374600082015250565b6000611d2260208361149a565b9150611d2d82611cec565b602082019050919050565b60006020820190508181036000830152611d5181611d15565b9050919050565b7f4e487b7100000000000000000000000000000000000000000000000000000000600052602260045260246000fd5b60006002820490506001821680611d9f57607f821691505b602082108103611db257611db1611d58565b5b50919050565b7f43616e6e6f74206164642063616e6469646174657320616674657220766f746960008201527f6e67207374617274730000000000000000000000000000000000000000000000602082015250565b6000611e1460298361149a565b9150611e1f82611db8565b604082019050919050565b60006020820190508181036000830152611e4381611e07565b9050919050565b60008190508160005260206000209050919050565b60006020601f8301049050919050565b600082821b905092915050565b600060088302611eac7fffffffffffffffffffffffffffffffffffffffffffffffffffffffffffffffff82611e6f565b611eb68683611e6f565b95508019841693508086168417925050509392505050565b6000819050919050565b6000611ef3611eee611ee984611402565b611ece565b611402565b9050919050565b6000819050919050565b611f0d83611ed8565b611f21611f1982611efa565b848454611e7c565b825550505050565b600090565b611f36611f29565b611f41818484611f04565b505050565b5b81811015611f6557611f5a600082611f2e565b600181019050611f47565b5050565b601f821115611faa57611f7b81611e4a565b611f8484611e5f565b81016020851015611f93578190505b611fa7611f9f85611e5f565b830182611f46565b50505b505050565b600082821c905092915050565b6000611fcd60001984600802611faf565b1980831691505092915050565b6000611fe68383611fbc565b9150826002028217905092915050565b611fff8261148f565b67ffffffffffffffff81111561201857612017611567565b5b6120228254611d87565b61202d828285611f69565b600060209050601f831160018114612060576000841561204e578287015190505b6120588582611fda565b8655506120c0565b601f19841661206e86611e4a565b60005b8281101561209657848901518255600182019150602085019450602081019050612071565b868310156120b357848901516120af601f891682611fbc565b8355505b6001600288020188555050505b505050505050565b60006120d382611402565b91506120de83611402565b92508282039050818111156120f6576120f5611b54565b5b92915050565b60006040820190506121116000830185611465565b818103602083015261212381846114e6565b90509392505050565b7f566f74696e67206973206e6f742079657420656e646564000000000000000000600082015250565b600061216260178361149a565b915061216d8261212c565b602082019050919050565b6000602082019050818103600083015261219181612155565b9050919050565b7f496e76616c696420696e64657800000000000000000000000000000000000000600082015250565b60006121ce600d8361149a565b91506121d982612198565b602082019050919050565b600060208201905081810360008301526121fd816121c1565b9050919050565b7f566f74696e6720616c726561647920656e646564000000000000000000000000600082015250565b600061223a60148361149a565b915061224582612204565b602082019050919050565b600060208201905081810360008301526122698161222d565b9050919050565b6000815461227d81611d87565b612287818661149a565b945060018216600081146122a257600181146122b8576122eb565b60ff1983168652811515602002860193506122eb565b6122c185611e4a565b60005b838110156122e3578154818901526001820191506020810190506122c4565b808801955050505b50505092915050565b60006040820190506123096000830185611465565b818103602083015261231b8184612270565b90509392505050565b7f43616e6e6f74207265736574207768696c6520766f74696e672069732061637460008201527f6976650000000000000000000000000000000000000000000000000000000000602082015250565b600061238060238361149a565b915061238b82612324565b604082019050919050565b600060208201905081810360008301526123af81612373565b9050919050565b600060408201905081810360008301526123d08185612270565b90506123df6020830184611465565b9392505050565b60006123f182611402565b91507fffffffffffffffffffffffffffffffffffffffffffffffffffffffffffffffff820361242357612422611b54565b5b60018201905091905056fea2646970667358221220b4a3f74093cbce325d7f5c88c557f8b52a6e2d0237907171b1573abf3c8c2bf764736f6c63430008130033",
  "linkReferences": {},
  "deployedLinkReferences": {}
}