{
  "_format": "hh-sol-artifact-1",
  "contractName": "Voting",
  "sourceName": "contracts/Voting.sol",
  "abi": [
    {
      "inputs": [],
      "stateMutability": "nonpayable",
      "type": "constructor"
    },
    {
      "anonymous": false,
      "inputs": [
        {
          "indexed": false,
          "internalType": "uint256",
          "name": "electionId",
          "type": "uint256"
        },
        {
          "indexed": false,
          "internalType": "uint256",
          "name": "candidateId",
          "type": "uint256"
        },
        {
          "indexed": false,
          "internalType": "string",
          "name": "name",
          "type": "string"
        }
      ],
      "name": "CandidateAdded",
      "type": "event"
    },
    {
      "anonymous": false,
      "inputs": [
        {
          "indexed": false,
          "internalType": "uint256",
          "name": "electionId",
          "type": "uint256"
        },
        {
          "indexed": false,
          "internalType": "string",
          "name": "name",
          "type": "string"
        },
        {
          "indexed": false,
          "internalType": "uint256",
          "name": "startTime",
          "type": "uint256"
        },
        {
          "indexed": false,
          "internalType": "uint256",
          "name": "endTime",
          "type": "uint256"
        }
      ],
      "name": "ElectionCreated",
      "type": "event"
    },
    {
      "anonymous": false,
      "inputs": [
        {
          "indexed": false,
          "internalType": "uint256",
          "name": "electionId",
          "type": "uint256"
        },
        {
          "indexed": false,
          "internalType": "uint256",
          "name": "candidateId",
          "type": "uint256"
        },
        {
          "indexed": false,
          "internalType": "address",
          "name": "voter",
          "type": "address"
        }
      ],
      "name": "Voted",
      "type": "event"
    },
    {
      "anonymous": false,
      "inputs": [
        {
          "indexed": false,
          "internalType": "uint256",
          "name": "electionId",
          "type": "uint256"
        }
      ],
      "name": "VotingEnded",
      "type": "event"
    },
    {
      "anonymous": false,
      "inputs": [
        {
          "indexed": false,
          "internalType": "uint256",
          "name": "electionId",
          "type": "uint256"
        }
      ],
      "name": "VotingStarted",
      "type": "event"
    },
    {
      "inputs": [
        {
          "internalType": "uint256",
          "name": "electionId",
          "type": "uint256"
        },
        {
          "internalType": "string",
          "name": "_name",
          "type": "string"
        }
      ],
      "name": "addCandidate",
      "outputs": [],
      "stateMutability": "nonpayable",
      "type": "function"
    },
    {
      "inputs": [],
      "name": "admin",
      "outputs": [
        {
          "internalType": "address",
          "name": "",
          "type": "address"
        }
      ],
      "stateMutability": "view",
      "type": "function"
    },
    {
      "inputs": [
        {
          "internalType": "string",
          "name": "_name",
          "type": "string"
        },
        {
          "internalType": "string",
          "name": "_description",
          "type": "string"
        },
        {
          "internalType": "uint256",
          "name": "_startTime",
          "type": "uint256"
        },
        {
          "internalType": "uint256",
          "name": "_endTime",
          "type": "uint256"
        }
      ],
      "name": "createElection",
      "outputs": [],
      "stateMutability": "nonpayable",
      "type": "function"
    },
    {
      "inputs": [],
      "name": "electionCount",
      "outputs": [
        {
          "internalType": "uint256",
          "name": "",
          "type": "uint256"
        }
      ],
      "stateMutability": "view",
      "type": "function"
    },
    {
      "inputs": [
        {
          "internalType": "uint256",
          "name": "electionId",
          "type": "uint256"
        }
      ],
      "name": "endVoting",
      "outputs": [],
      "stateMutability": "nonpayable",
      "type": "function"
    },
    {
      "inputs": [],
      "name": "getAllElections",
      "outputs": [
        {
          "internalType": "uint256[]",
          "name": "",
          "type": "uint256[]"
        },
        {
          "internalType": "string[]",
          "name": "",
          "type": "string[]"
        },
        {
          "internalType": "string[]",
          "name": "",
          "type": "string[]"
        },
        {
          "internalType": "uint256[]",
          "name": "",
          "type": "uint256[]"
        },
        {
          "internalType": "uint256[]",
          "name": "",
          "type": "uint256[]"
        },
        {
          "internalType": "bool[]",
          "name": "",
          "type": "bool[]"
        },
        {
          "internalType": "bool[]",
          "name": "",
          "type": "bool[]"
        }
      ],
      "stateMutability": "view",
      "type": "function"
    },
    {
      "inputs": [
        {
          "internalType": "uint256",
          "name": "electionId",
          "type": "uint256"
        }
      ],
      "name": "getCandidates",
      "outputs": [
        {
          "components": [
            {
              "internalType": "uint256",
              "name": "id",
              "type": "uint256"
            },
            {
              "internalType": "string",
              "name": "name",
              "type": "string"
            },
            {
              "internalType": "uint256",
              "name": "voteCount",
              "type": "uint256"
            }
          ],
          "internalType": "struct Voting.Candidate[]",
          "name": "",
          "type": "tuple[]"
        }
      ],
      "stateMutability": "view",
      "type": "function"
    },
    {
      "inputs": [
        {
          "internalType": "uint256",
          "name": "electionId",
          "type": "uint256"
        }
      ],
      "name": "getWinner",
      "outputs": [
        {
          "internalType": "string",
          "name": "",
          "type": "string"
        }
      ],
      "stateMutability": "view",
      "type": "function"
    },
    {
      "inputs": [
        {
          "internalType": "uint256",
          "name": "electionId",
          "type": "uint256"
        }
      ],
      "name": "startVoting",
      "outputs": [],
      "stateMutability": "nonpayable",
      "type": "function"
    },
    {
      "inputs": [
        {
          "internalType": "uint256",
          "name": "electionId",
          "type": "uint256"
        },
        {
          "internalType": "uint256",
          "name": "candidateId",
          "type": "uint256"
        }
      ],
      "name": "vote",
      "outputs": [],
      "stateMutability": "nonpayable",
      "type": "function"
    }
  ],
  "bytecode": "0x608060405234801561001057600080fd5b50600080546001600160a01b031916331790556115ef806100326000396000f3fe608060405234801561001057600080fd5b506004361061009e5760003560e01c80637ad36e84116100665780637ad36e84146101275780637fd5f2681461013a578063997d283014610155578063b384abef1461016c578063f851a4401461017f57600080fd5b80631750a3d0146100a35780633d2f5bda146100b85780633e39a7a5146100cb5780634129b2c9146100f4578063649f89a514610114575b600080fd5b6100b66100b136600461103c565b6101aa565b005b6100b66100c6366004611083565b610312565b6100de6100d9366004611083565b610408565b6040516100eb91906110e2565b60405180910390f35b610107610102366004611083565b61053d565b6040516100eb9190611163565b6100b6610122366004611083565b610701565b6100b661013536600461117d565b6107eb565b61014261090a565b6040516100eb97969594939291906112b3565b61015e60015481565b6040519081526020016100eb565b6100b661017a36600461134a565b610d8d565b600054610192906001600160a01b031681565b6040516001600160a01b0390911681526020016100eb565b6000546001600160a01b031633146101dd5760405162461bcd60e51b81526004016101d49061136c565b60405180910390fd5b8160015481106101ff5760405162461bcd60e51b81526004016101d4906113ae565b6000838152600260205260409020600581015460ff16156102745760405162461bcd60e51b815260206004820152602960248201527f43616e6e6f74206164642063616e6469646174657320616674657220766f74696044820152686e672073746172747360b81b60648201526084016101d4565b6006810180546040805160608101825282815260208082018881526000938301849052600180860187559584529220815160038502909101908155915192939092908201906102c39082611468565b506040820151816002015550507fed8911b3df733b7d5f75724158e54478ea12e30f49c9d31b5261879f5b76586f85828660405161030393929190611528565b60405180910390a15050505050565b6000546001600160a01b0316331461033c5760405162461bcd60e51b81526004016101d49061136c565b80600154811061035e5760405162461bcd60e51b81526004016101d4906113ae565b6000828152600260205260409020600581015460ff16156103ba5760405162461bcd60e51b8152602060048201526016602482015275159bdd1a5b99c8185b1c9958591e481cdd185c9d195960521b60448201526064016101d4565b60058101805460ff191660011790556040517fcf33babc496bb6dc2942b39cb7b75766bbbadf7da50d176ff8c513e991140239906103fb9085815260200190565b60405180910390a1505050565b606081600154811061042c5760405162461bcd60e51b81526004016101d4906113ae565b600083815260026020908152604080832060060180548251818502810185019093528083529193909284015b82821015610530578382906000526020600020906003020160405180606001604052908160008201548152602001600182018054610495906113e5565b80601f01602080910402602001604051908101604052809291908181526020018280546104c1906113e5565b801561050e5780601f106104e35761010080835404028352916020019161050e565b820191906000526020600020905b8154815290600101906020018083116104f157829003601f168201915b5050505050815260200160028201548152505081526020019060010190610458565b5050505091505b50919050565b60608160015481106105615760405162461bcd60e51b81526004016101d4906113ae565b60008381526002602052604090206005810154610100900460ff166105c85760405162461bcd60e51b815260206004820152601860248201527f566f74696e6720686173206e6f7420656e64656420796574000000000000000060448201526064016101d4565b600080805b600684015481101561064657828460060182815481106105ef576105ef611550565b90600052602060002090600302016002015411156106345783600601818154811061061c5761061c611550565b90600052602060002090600302016002015492508091505b8061063e81611566565b9150506105cd565b5082600601818154811061065c5761065c611550565b90600052602060002090600302016001018054610678906113e5565b80601f01602080910402602001604051908101604052809291908181526020018280546106a4906113e5565b80156106f15780601f106106c6576101008083540402835291602001916106f1565b820191906000526020600020905b8154815290600101906020018083116106d457829003601f168201915b5050505050945050505050919050565b6000546001600160a01b0316331461072b5760405162461bcd60e51b81526004016101d49061136c565b80600154811061074d5760405162461bcd60e51b81526004016101d4906113ae565b6000828152600260205260409020600581015460ff166107a85760405162461bcd60e51b8152602060048201526016602482015275159bdd1a5b99c81b9bdd081cdd185c9d1959081e595d60521b60448201526064016101d4565b60058101805461ff0019166101001790556040517f81eb7415440ff8e6c8e92606fd3b0e5e6a5c99ea90cdb63b41aec54e897312b3906103fb9085815260200190565b6000546001600160a01b031633146108155760405162461bcd60e51b81526004016101d49061136c565b80821061086f5760405162461bcd60e51b815260206004820152602260248201527f53746172742074696d65206d757374206265206265666f726520656e642074696044820152616d6560f01b60648201526084016101d4565b6001805460008181526002602052604090209081559081016108918682611468565b50600281016108a08582611468565b5060038101839055600481018290556001546040517fe7a0aae5d733e07e246dea86213a1ac1b0aa8554bde889bb75c12752f44e53d9916108e69188908790879061158d565b60405180910390a1600180549060006108fe83611566565b91905055505050505050565b6060806060806060806060600060015467ffffffffffffffff81111561093257610932610f99565b60405190808252806020026020018201604052801561095b578160200160208202803683370190505b509050600060015467ffffffffffffffff81111561097b5761097b610f99565b6040519080825280602002602001820160405280156109ae57816020015b60608152602001906001900390816109995790505b509050600060015467ffffffffffffffff8111156109ce576109ce610f99565b604051908082528060200260200182016040528015610a0157816020015b60608152602001906001900390816109ec5790505b509050600060015467ffffffffffffffff811115610a2157610a21610f99565b604051908082528060200260200182016040528015610a4a578160200160208202803683370190505b509050600060015467ffffffffffffffff811115610a6a57610a6a610f99565b604051908082528060200260200182016040528015610a93578160200160208202803683370190505b509050600060015467ffffffffffffffff811115610ab357610ab3610f99565b604051908082528060200260200182016040528015610adc578160200160208202803683370190505b509050600060015467ffffffffffffffff811115610afc57610afc610f99565b604051908082528060200260200182016040528015610b25578160200160208202803683370190505b50905060005b600154811015610d76576000818152600260205260409020805489518a9084908110610b5957610b59611550565b602002602001018181525050806001018054610b74906113e5565b80601f0160208091040260200160405190810160405280929190818152602001828054610ba0906113e5565b8015610bed5780601f10610bc257610100808354040283529160200191610bed565b820191906000526020600020905b815481529060010190602001808311610bd057829003601f168201915b5050505050888381518110610c0457610c04611550565b6020026020010181905250806002018054610c1e906113e5565b80601f0160208091040260200160405190810160405280929190818152602001828054610c4a906113e5565b8015610c975780601f10610c6c57610100808354040283529160200191610c97565b820191906000526020600020905b815481529060010190602001808311610c7a57829003601f168201915b5050505050878381518110610cae57610cae611550565b60200260200101819052508060030154868381518110610cd057610cd0611550565b6020026020010181815250508060040154858381518110610cf357610cf3611550565b60209081029190910101526005810154845160ff90911690859084908110610d1d57610d1d611550565b6020026020010190151590811515815250508060050160019054906101000a900460ff16838381518110610d5357610d53611550565b911515602092830291909101909101525080610d6e81611566565b915050610b2b565b50959d949c50929a50909850965094509092509050565b816001548110610daf5760405162461bcd60e51b81526004016101d4906113ae565b6000838152600260205260409020600581015460ff16610e0a5760405162461bcd60e51b8152602060048201526016602482015275159bdd1a5b99c81a185cc81b9bdd081cdd185c9d195960521b60448201526064016101d4565b6005810154610100900460ff1615610e575760405162461bcd60e51b815260206004820152601060248201526f159bdd1a5b99c81a185cc8195b99195960821b60448201526064016101d4565b33600090815260078201602052604090205460ff1615610eb25760405162461bcd60e51b8152602060048201526016602482015275165bdd481a185d9948185b1c9958591e481d9bdd195960521b60448201526064016101d4565b60068101548310610efc5760405162461bcd60e51b8152602060048201526014602482015273125b9d985b1a590818d85b991a59185d1948125160621b60448201526064016101d4565b806006018381548110610f1157610f11611550565b600091825260208220600260039092020101805491610f2f83611566565b9091555050336000818152600783016020908152604091829020805460ff191660011790558151878152908101869052908101919091527fd91ecafccf238642dccd41161308b3eebe62a12bc5819daf5164780c221ec95b9060600160405180910390a150505050565b634e487b7160e01b600052604160045260246000fd5b600082601f830112610fc057600080fd5b813567ffffffffffffffff80821115610fdb57610fdb610f99565b604051601f8301601f19908116603f0116810190828211818310171561100357611003610f99565b8160405283815286602085880101111561101c57600080fd5b836020870160208301376000602085830101528094505050505092915050565b6000806040838503121561104f57600080fd5b82359150602083013567ffffffffffffffff81111561106d57600080fd5b61107985828601610faf565b9150509250929050565b60006020828403121561109557600080fd5b5035919050565b6000815180845260005b818110156110c2576020818501810151868301820152016110a6565b506000602082860101526020601f19601f83011685010191505092915050565b60006020808301818452808551808352604092508286019150828160051b87010184880160005b8381101561115557603f19898403018552815160608151855288820151818a8701526111378287018261109c565b92890151958901959095525094870194925090860190600101611109565b509098975050505050505050565b602081526000611176602083018461109c565b9392505050565b6000806000806080858703121561119357600080fd5b843567ffffffffffffffff808211156111ab57600080fd5b6111b788838901610faf565b955060208701359150808211156111cd57600080fd5b506111da87828801610faf565b949794965050505060408301359260600135919050565b600081518084526020808501945080840160005b8381101561122157815187529582019590820190600101611205565b509495945050505050565b600081518084526020808501808196508360051b8101915082860160005b8581101561127457828403895261126284835161109c565b9885019893509084019060010161124a565b5091979650505050505050565b600081518084526020808501945080840160005b83811015611221578151151587529582019590820190600101611295565b60e0815260006112c660e083018a6111f1565b82810360208401526112d8818a61122c565b905082810360408401526112ec818961122c565b9050828103606084015261130081886111f1565b9050828103608084015261131481876111f1565b905082810360a08401526113288186611281565b905082810360c084015261133c8185611281565b9a9950505050505050505050565b6000806040838503121561135d57600080fd5b50508035926020909101359150565b60208082526022908201527f4f6e6c792061646d696e2063616e20706572666f726d2074686973206163746960408201526137b760f11b606082015260800190565b60208082526017908201527f456c656374696f6e20646f6573206e6f74206578697374000000000000000000604082015260600190565b600181811c908216806113f957607f821691505b60208210810361053757634e487b7160e01b600052602260045260246000fd5b601f82111561146357600081815260208120601f850160051c810160208610156114405750805b601f850160051c820191505b8181101561145f5782815560010161144c565b5050505b505050565b815167ffffffffffffffff81111561148257611482610f99565b6114968161149084546113e5565b84611419565b602080601f8311600181146114cb57600084156114b35750858301515b600019600386901b1c1916600185901b17855561145f565b600085815260208120601f198616915b828110156114fa578886015182559484019460019091019084016114db565b50858210156115185787850151600019600388901b60f8161c191681555b5050505050600190811b01905550565b838152826020820152606060408201526000611547606083018461109c565b95945050505050565b634e487b7160e01b600052603260045260246000fd5b60006001820161158657634e487b7160e01b600052601160045260246000fd5b5060010190565b8481526080602082015260006115a6608083018661109c565b604083019490945250606001529291505056fea264697066735822122015ba0347083dbaedcb5cf40c6fe86a097d0e108fbbaa22e1396180038fd2547764736f6c63430008140033",
  "linkReferences": {},
  "deployedLinkReferences": {}
}