{
  "_format": "hh-sol-artifact-1",
  "contractName": "Voting",
  "sourceName": "contracts/Voting.sol",
  "abi": [
    {
      "inputs": [],
      "stateMutability": "nonpayable",
      "type": "constructor"
    },
    {
      "anonymous": false,
      "inputs": [
        {
          "indexed": false,
          "internalType": "uint256",
          "name": "candidateId",
          "type": "uint256"
        },
        {
          "indexed": false,
          "internalType": "string",
          "name": "name",
          "type": "string"
        }
      ],
      "name": "CandidateAdded",
      "type": "event"
    },
    {
      "anonymous": false,
      "inputs": [
        {
          "indexed": false,
          "internalType": "uint256",
          "name": "newRound",
          "type": "uint256"
        }
      ],
      "name": "ElectionReset",
      "type": "event"
    },
    {
      "anonymous": false,
      "inputs": [
        {
          "indexed": false,
          "internalType": "address",
          "name": "voter",
          "type": "address"
        },
        {
          "indexed": false,
          "internalType": "uint256",
          "name": "candidateId",
          "type": "uint256"
        },
        {
          "indexed": false,
          "internalType": "uint256",
          "name": "round",
          "type": "uint256"
        }
      ],
      "name": "VoteCast",
      "type": "event"
    },
    {
      "anonymous": false,
      "inputs": [
        {
          "indexed": false,
          "internalType": "uint256",
          "name": "round",
          "type": "uint256"
        },
        {
          "indexed": false,
          "internalType": "string",
          "name": "winner",
          "type": "string"
        }
      ],
      "name": "VotingEnded",
      "type": "event"
    },
    {
      "anonymous": false,
      "inputs": [
        {
          "indexed": false,
          "internalType": "uint256",
          "name": "round",
          "type": "uint256"
        }
      ],
      "name": "VotingStarted",
      "type": "event"
    },
    {
      "inputs": [
        {
          "internalType": "string",
          "name": "_name",
          "type": "string"
        }
      ],
      "name": "addCandidate",
      "outputs": [],
      "stateMutability": "nonpayable",
      "type": "function"
    },
    {
      "inputs": [],
      "name": "admin",
      "outputs": [
        {
          "internalType": "address",
          "name": "",
          "type": "address"
        }
      ],
      "stateMutability": "view",
      "type": "function"
    },
    {
      "inputs": [
        {
          "internalType": "uint256",
          "name": "",
          "type": "uint256"
        }
      ],
      "name": "candidates",
      "outputs": [
        {
          "internalType": "uint256",
          "name": "id",
          "type": "uint256"
        },
        {
          "internalType": "string",
          "name": "name",
          "type": "string"
        },
        {
          "internalType": "uint256",
          "name": "voteCount",
          "type": "uint256"
        }
      ],
      "stateMutability": "view",
      "type": "function"
    },
    {
      "inputs": [],
      "name": "electionRound",
      "outputs": [
        {
          "internalType": "uint256",
          "name": "",
          "type": "uint256"
        }
      ],
      "stateMutability": "view",
      "type": "function"
    },
    {
      "inputs": [],
      "name": "endVoting",
      "outputs": [],
      "stateMutability": "nonpayable",
      "type": "function"
    },
    {
      "inputs": [],
      "name": "getResults",
      "outputs": [
        {
          "components": [
            {
              "internalType": "uint256",
              "name": "id",
              "type": "uint256"
            },
            {
              "internalType": "string",
              "name": "name",
              "type": "string"
            },
            {
              "internalType": "uint256",
              "name": "voteCount",
              "type": "uint256"
            }
          ],
          "internalType": "struct Voting.Candidate[]",
          "name": "",
          "type": "tuple[]"
        }
      ],
      "stateMutability": "view",
      "type": "function"
    },
    {
      "inputs": [],
      "name": "getWinner",
      "outputs": [
        {
          "internalType": "string",
          "name": "",
          "type": "string"
        }
      ],
      "stateMutability": "view",
      "type": "function"
    },
    {
      "inputs": [
        {
          "internalType": "address",
          "name": "",
          "type": "address"
        }
      ],
      "name": "hasVotedRound",
      "outputs": [
        {
          "internalType": "uint256",
          "name": "",
          "type": "uint256"
        }
      ],
      "stateMutability": "view",
      "type": "function"
    },
    {
      "inputs": [],
      "name": "resetElection",
      "outputs": [],
      "stateMutability": "nonpayable",
      "type": "function"
    },
    {
      "inputs": [],
      "name": "startVoting",
      "outputs": [],
      "stateMutability": "nonpayable",
      "type": "function"
    },
    {
      "inputs": [
        {
          "internalType": "uint256",
          "name": "_candidateId",
          "type": "uint256"
        }
      ],
      "name": "vote",
      "outputs": [],
      "stateMutability": "nonpayable",
      "type": "function"
    },
    {
      "inputs": [
        {
          "internalType": "uint256",
          "name": "",
          "type": "uint256"
        }
      ],
      "name": "voters",
      "outputs": [
        {
          "internalType": "address",
          "name": "",
          "type": "address"
        }
      ],
      "stateMutability": "view",
      "type": "function"
    },
    {
      "inputs": [],
      "name": "votingEnded",
      "outputs": [
        {
          "internalType": "bool",
          "name": "",
          "type": "bool"
        }
      ],
      "stateMutability": "view",
      "type": "function"
    },
    {
      "inputs": [],
      "name": "votingStarted",
      "outputs": [
        {
          "internalType": "bool",
          "name": "",
          "type": "bool"
        }
      ],
      "stateMutability": "view",
      "type": "function"
    },
    {
      "inputs": [],
      "name": "winner",
      "outputs": [
        {
          "internalType": "string",
          "name": "",
          "type": "string"
        }
      ],
      "stateMutability": "view",
      "type": "function"
    }
  ],
  "bytecode": "0x6080604052600160035534801561001557600080fd5b50336000806101000a81548173ffffffffffffffffffffffffffffffffffffffff021916908373ffffffffffffffffffffffffffffffffffffffff16021790555061217e806100656000396000f3fe608060405234801561001057600080fd5b50600436106100f55760003560e01c80638e7ea5b211610097578063da58c7d911610066578063da58c7d91461023e578063dfbf53ae1461026e578063e8f305231461028c578063f851a44014610296576100f5565b80638e7ea5b2146101c85780639d5a0529146101e6578063c286acc914610204578063c3403ddf14610234576100f5565b8063462e91ec116100d3578063462e91ec146101525780634717f97c1461016e578063636948741461018c57806383d948b7146101aa576100f5565b80630121b93f146100fa5780631ec6b60a146101165780633477ee2e14610120575b600080fd5b610114600480360381019061010f91906111ee565b6102b4565b005b61011e610542565b005b61013a600480360381019061013591906111ee565b6106d9565b604051610149939291906112ba565b60405180910390f35b61016c6004803603810190610167919061142d565b61079b565b005b61017661093d565b60405161018391906115e1565b60405180910390f35b610194610a42565b6040516101a19190611603565b60405180910390f35b6101b2610a48565b6040516101bf9190611639565b60405180910390f35b6101d0610a5b565b6040516101dd9190611654565b60405180910390f35b6101ee610b3c565b6040516101fb9190611639565b60405180910390f35b61021e600480360381019061021991906116d4565b610b4f565b60405161022b9190611603565b60405180910390f35b61023c610b67565b005b610258600480360381019061025391906111ee565b610cf5565b6040516102659190611710565b60405180910390f35b610276610d34565b6040516102839190611654565b60405180910390f35b610294610dc2565b005b61029e610f65565b6040516102ab9190611710565b60405180910390f35b600560009054906101000a900460ff16610303576040517f08c379a00000000000000000000000000000000000000000000000000000000081526004016102fa90611777565b60405180910390fd5b600560019054906101000a900460ff1615610353576040517f08c379a000000000000000000000000000000000000000000000000000000000815260040161034a906117e3565b60405180910390fd5b600354600260003373ffffffffffffffffffffffffffffffffffffffff1673ffffffffffffffffffffffffffffffffffffffff16815260200190815260200160002054036103d6576040517f08c379a00000000000000000000000000000000000000000000000000000000081526004016103cd9061184f565b60405180910390fd5b600180549050811061041d576040517f08c379a0000000000000000000000000000000000000000000000000000000008152600401610414906118bb565b60405180910390fd5b6001808281548110610432576104316118db565b5b906000526020600020906003020160020160008282546104529190611939565b92505081905550600354600260003373ffffffffffffffffffffffffffffffffffffffff1673ffffffffffffffffffffffffffffffffffffffff168152602001908152602001600020819055506004339080600181540180825580915050600190039060005260206000200160009091909190916101000a81548173ffffffffffffffffffffffffffffffffffffffff021916908373ffffffffffffffffffffffffffffffffffffffff1602179055507fb4cfecf70861b7b150d8337780d34fb4cbc2114b5fb1fe51a5c5fca1849f727433826003546040516105379392919061196d565b60405180910390a150565b60008054906101000a900473ffffffffffffffffffffffffffffffffffffffff1673ffffffffffffffffffffffffffffffffffffffff163373ffffffffffffffffffffffffffffffffffffffff16146105d0576040517f08c379a00000000000000000000000000000000000000000000000000000000081526004016105c790611a16565b60405180910390fd5b600560009054906101000a900460ff1615610620576040517f08c379a000000000000000000000000000000000000000000000000000000000815260040161061790611a82565b60405180910390fd5b600060018054905011610668576040517f08c379a000000000000000000000000000000000000000000000000000000000815260040161065f90611aee565b60405180910390fd5b6001600560006101000a81548160ff0219169083151502179055506000600560016101000a81548160ff0219169083151502179055507fcf33babc496bb6dc2942b39cb7b75766bbbadf7da50d176ff8c513e9911402396003546040516106cf9190611603565b60405180910390a1565b600181815481106106e957600080fd5b906000526020600020906003020160009150905080600001549080600101805461071290611b3d565b80601f016020809104026020016040519081016040528092919081815260200182805461073e90611b3d565b801561078b5780601f106107605761010080835404028352916020019161078b565b820191906000526020600020905b81548152906001019060200180831161076e57829003601f168201915b5050505050908060020154905083565b60008054906101000a900473ffffffffffffffffffffffffffffffffffffffff1673ffffffffffffffffffffffffffffffffffffffff163373ffffffffffffffffffffffffffffffffffffffff1614610829576040517f08c379a000000000000000000000000000000000000000000000000000000000815260040161082090611a16565b60405180910390fd5b600560009054906101000a900460ff1615610879576040517f08c379a000000000000000000000000000000000000000000000000000000000815260040161087090611be0565b60405180910390fd5b600160405180606001604052806001805490508152602001838152602001600081525090806001815401808255809150506001900390600052602060002090600302016000909190919091506000820151816000015560208201518160010190816108e49190611dac565b506040820151816002015550507fe83b2a43e7e82d975c8a0a6d2f045153c869e111136a34d1889ab7b598e396a3600180805490506109239190611e7e565b82604051610932929190611eb2565b60405180910390a150565b60606001805480602002602001604051908101604052809291908181526020016000905b82821015610a3957838290600052602060002090600302016040518060600160405290816000820154815260200160018201805461099e90611b3d565b80601f01602080910402602001604051908101604052809291908181526020018280546109ca90611b3d565b8015610a175780601f106109ec57610100808354040283529160200191610a17565b820191906000526020600020905b8154815290600101906020018083116109fa57829003601f168201915b5050505050815260200160028201548152505081526020019060010190610961565b50505050905090565b60035481565b600560009054906101000a900460ff1681565b6060600560019054906101000a900460ff16610aac576040517f08c379a0000000000000000000000000000000000000000000000000000000008152600401610aa390611f2e565b60405180910390fd5b60068054610ab990611b3d565b80601f0160208091040260200160405190810160405280929190818152602001828054610ae590611b3d565b8015610b325780601f10610b0757610100808354040283529160200191610b32565b820191906000526020600020905b815481529060010190602001808311610b1557829003601f168201915b5050505050905090565b600560019054906101000a900460ff1681565b60026020528060005260406000206000915090505481565b60008054906101000a900473ffffffffffffffffffffffffffffffffffffffff1673ffffffffffffffffffffffffffffffffffffffff163373ffffffffffffffffffffffffffffffffffffffff1614610bf5576040517f08c379a0000000000000000000000000000000000000000000000000000000008152600401610bec90611a16565b60405180910390fd5b600560009054906101000a900460ff16610c44576040517f08c379a0000000000000000000000000000000000000000000000000000000008152600401610c3b90611777565b60405180910390fd5b600560019054906101000a900460ff1615610c94576040517f08c379a0000000000000000000000000000000000000000000000000000000008152600401610c8b90611f9a565b60405180910390fd5b6001600560016101000a81548160ff021916908315150217905550610cb7610f89565b7fa3227ce2555eb04e16ca713bb19edd3beed774c93bcdf4e971f7aa405c2ca2536003546006604051610ceb92919061203e565b60405180910390a1565b60048181548110610d0557600080fd5b906000526020600020016000915054906101000a900473ffffffffffffffffffffffffffffffffffffffff1681565b60068054610d4190611b3d565b80601f0160208091040260200160405190810160405280929190818152602001828054610d6d90611b3d565b8015610dba5780601f10610d8f57610100808354040283529160200191610dba565b820191906000526020600020905b815481529060010190602001808311610d9d57829003601f168201915b505050505081565b60008054906101000a900473ffffffffffffffffffffffffffffffffffffffff1673ffffffffffffffffffffffffffffffffffffffff163373ffffffffffffffffffffffffffffffffffffffff1614610e50576040517f08c379a0000000000000000000000000000000000000000000000000000000008152600401610e4790611a16565b60405180910390fd5b600560019054906101000a900460ff16610e9f576040517f08c379a0000000000000000000000000000000000000000000000000000000008152600401610e96906120e0565b60405180910390fd5b60016000610ead91906110cb565b6000600560006101000a81548160ff0219169083151502179055506000600560016101000a81548160ff0219169083151502179055506040518060200160405280600081525060069081610f019190611dac565b50600160036000828254610f159190611939565b9250508190555060046000610f2a91906110ef565b7f2a0e7ca52e830898fc8ddd8f2fc8695795a5fdf74064958562691b5bea4485f5600354604051610f5b9190611603565b60405180910390a1565b60008054906101000a900473ffffffffffffffffffffffffffffffffffffffff1681565b6000606060005b6001805490508110156110b6578260018281548110610fb257610fb16118db565b5b90600052602060002090600302016002015411156110a35760018181548110610fde57610fdd6118db565b5b906000526020600020906003020160020154925060018181548110611006576110056118db565b5b9060005260206000209060030201600101805461102290611b3d565b80601f016020809104026020016040519081016040528092919081815260200182805461104e90611b3d565b801561109b5780601f106110705761010080835404028352916020019161109b565b820191906000526020600020905b81548152906001019060200180831161107e57829003601f168201915b505050505091505b80806110ae90612100565b915050610f90565b5080600690816110c69190611dac565b505050565b50805460008255600302906000526020600020908101906110ec9190611110565b50565b508054600082559060005260206000209081019061110d9190611147565b50565b5b80821115611143576000808201600090556001820160006111329190611164565b600282016000905550600301611111565b5090565b5b80821115611160576000816000905550600101611148565b5090565b50805461117090611b3d565b6000825580601f1061118257506111a1565b601f0160209004906000526020600020908101906111a09190611147565b5b50565b6000604051905090565b600080fd5b600080fd5b6000819050919050565b6111cb816111b8565b81146111d657600080fd5b50565b6000813590506111e8816111c2565b92915050565b600060208284031215611204576112036111ae565b5b6000611212848285016111d9565b91505092915050565b611224816111b8565b82525050565b600081519050919050565b600082825260208201905092915050565b60005b83811015611264578082015181840152602081019050611249565b60008484015250505050565b6000601f19601f8301169050919050565b600061128c8261122a565b6112968185611235565b93506112a6818560208601611246565b6112af81611270565b840191505092915050565b60006060820190506112cf600083018661121b565b81810360208301526112e18185611281565b90506112f0604083018461121b565b949350505050565b600080fd5b600080fd5b7f4e487b7100000000000000000000000000000000000000000000000000000000600052604160045260246000fd5b61133a82611270565b810181811067ffffffffffffffff8211171561135957611358611302565b5b80604052505050565b600061136c6111a4565b90506113788282611331565b919050565b600067ffffffffffffffff82111561139857611397611302565b5b6113a182611270565b9050602081019050919050565b82818337600083830152505050565b60006113d06113cb8461137d565b611362565b9050828152602081018484840111156113ec576113eb6112fd565b5b6113f78482856113ae565b509392505050565b600082601f830112611414576114136112f8565b5b81356114248482602086016113bd565b91505092915050565b600060208284031215611443576114426111ae565b5b600082013567ffffffffffffffff811115611461576114606111b3565b5b61146d848285016113ff565b91505092915050565b600081519050919050565b600082825260208201905092915050565b6000819050602082019050919050565b6114ab816111b8565b82525050565b600082825260208201905092915050565b60006114cd8261122a565b6114d781856114b1565b93506114e7818560208601611246565b6114f081611270565b840191505092915050565b600060608301600083015161151360008601826114a2565b506020830151848203602086015261152b82826114c2565b915050604083015161154060408601826114a2565b508091505092915050565b600061155783836114fb565b905092915050565b6000602082019050919050565b600061157782611476565b6115818185611481565b93508360208202850161159385611492565b8060005b858110156115cf57848403895281516115b0858261154b565b94506115bb8361155f565b925060208a01995050600181019050611597565b50829750879550505050505092915050565b600060208201905081810360008301526115fb818461156c565b905092915050565b6000602082019050611618600083018461121b565b92915050565b60008115159050919050565b6116338161161e565b82525050565b600060208201905061164e600083018461162a565b92915050565b6000602082019050818103600083015261166e8184611281565b905092915050565b600073ffffffffffffffffffffffffffffffffffffffff82169050919050565b60006116a182611676565b9050919050565b6116b181611696565b81146116bc57600080fd5b50565b6000813590506116ce816116a8565b92915050565b6000602082840312156116ea576116e96111ae565b5b60006116f8848285016116bf565b91505092915050565b61170a81611696565b82525050565b60006020820190506117256000830184611701565b92915050565b7f566f74696e6720686173206e6f74207374617274656400000000000000000000600082015250565b6000611761601683611235565b915061176c8261172b565b602082019050919050565b6000602082019050818103600083015261179081611754565b9050919050565b7f566f74696e672068617320656e64656400000000000000000000000000000000600082015250565b60006117cd601083611235565b91506117d882611797565b602082019050919050565b600060208201905081810360008301526117fc816117c0565b9050919050565b7f596f75206861766520616c726561647920766f74656400000000000000000000600082015250565b6000611839601683611235565b915061184482611803565b602082019050919050565b600060208201905081810360008301526118688161182c565b9050919050565b7f496e76616c69642063616e646964617465000000000000000000000000000000600082015250565b60006118a5601183611235565b91506118b08261186f565b602082019050919050565b600060208201905081810360008301526118d481611898565b9050919050565b7f4e487b7100000000000000000000000000000000000000000000000000000000600052603260045260246000fd5b7f4e487b7100000000000000000000000000000000000000000000000000000000600052601160045260246000fd5b6000611944826111b8565b915061194f836111b8565b92508282019050808211156119675761196661190a565b5b92915050565b60006060820190506119826000830186611701565b61198f602083018561121b565b61199c604083018461121b565b949350505050565b7f4f6e6c792061646d696e2063616e20706572666f726d2074686973206163746960008201527f6f6e000000000000000000000000000000000000000000000000000000000000602082015250565b6000611a00602283611235565b9150611a0b826119a4565b604082019050919050565b60006020820190508181036000830152611a2f816119f3565b9050919050565b7f566f74696e672068617320616c72656164792073746172746564000000000000600082015250565b6000611a6c601a83611235565b9150611a7782611a36565b602082019050919050565b60006020820190508181036000830152611a9b81611a5f565b9050919050565b7f416464206174206c65617374206f6e652063616e646964617465206669727374600082015250565b6000611ad8602083611235565b9150611ae382611aa2565b602082019050919050565b60006020820190508181036000830152611b0781611acb565b9050919050565b7f4e487b7100000000000000000000000000000000000000000000000000000000600052602260045260246000fd5b60006002820490506001821680611b5557607f821691505b602082108103611b6857611b67611b0e565b5b50919050565b7f43616e6e6f74206164642063616e6469646174657320616674657220766f746960008201527f6e67207374617274730000000000000000000000000000000000000000000000602082015250565b6000611bca602983611235565b9150611bd582611b6e565b604082019050919050565b60006020820190508181036000830152611bf981611bbd565b9050919050565b60008190508160005260206000209050919050565b60006020601f8301049050919050565b600082821b905092915050565b600060088302611c627fffffffffffffffffffffffffffffffffffffffffffffffffffffffffffffffff82611c25565b611c6c8683611c25565b95508019841693508086168417925050509392505050565b6000819050919050565b6000611ca9611ca4611c9f846111b8565b611c84565b6111b8565b9050919050565b6000819050919050565b611cc383611c8e565b611cd7611ccf82611cb0565b848454611c32565b825550505050565b600090565b611cec611cdf565b611cf7818484611cba565b505050565b5b81811015611d1b57611d10600082611ce4565b600181019050611cfd565b5050565b601f821115611d6057611d3181611c00565b611d3a84611c15565b81016020851015611d49578190505b611d5d611d5585611c15565b830182611cfc565b50505b505050565b600082821c905092915050565b6000611d8360001984600802611d65565b1980831691505092915050565b6000611d9c8383611d72565b9150826002028217905092915050565b611db58261122a565b67ffffffffffffffff811115611dce57611dcd611302565b5b611dd88254611b3d565b611de3828285611d1f565b600060209050601f831160018114611e165760008415611e04578287015190505b611e0e8582611d90565b865550611e76565b601f198416611e2486611c00565b60005b82811015611e4c57848901518255600182019150602085019450602081019050611e27565b86831015611e695784890151611e65601f891682611d72565b8355505b6001600288020188555050505b505050505050565b6000611e89826111b8565b9150611e94836111b8565b9250828203905081811115611eac57611eab61190a565b5b92915050565b6000604082019050611ec7600083018561121b565b8181036020830152611ed98184611281565b90509392505050565b7f566f74696e67206973206e6f742079657420656e646564000000000000000000600082015250565b6000611f18601783611235565b9150611f2382611ee2565b602082019050919050565b60006020820190508181036000830152611f4781611f0b565b9050919050565b7f566f74696e6720616c726561647920656e646564000000000000000000000000600082015250565b6000611f84601483611235565b9150611f8f82611f4e565b602082019050919050565b60006020820190508181036000830152611fb381611f77565b9050919050565b60008154611fc781611b3d565b611fd18186611235565b94506001821660008114611fec576001811461200257612035565b60ff198316865281151560200286019350612035565b61200b85611c00565b60005b8381101561202d5781548189015260018201915060208101905061200e565b808801955050505b50505092915050565b6000604082019050612053600083018561121b565b81810360208301526120658184611fba565b90509392505050565b7f43616e6e6f74207265736574207768696c6520766f74696e672069732061637460008201527f6976650000000000000000000000000000000000000000000000000000000000602082015250565b60006120ca602383611235565b91506120d58261206e565b604082019050919050565b600060208201905081810360008301526120f9816120bd565b9050919050565b600061210b826111b8565b91507fffffffffffffffffffffffffffffffffffffffffffffffffffffffffffffffff820361213d5761213c61190a565b5b60018201905091905056fea26469706673582212203ffbc07b96dc2fddb032667f467133a4455550bacc6d3eed96ffed3b540d723864736f6c63430008130033",
  "linkReferences": {},
  "deployedLinkReferences": {}
}